:020000040800F2
:1000000000500020291E0008790300087B03000827
:100010007D0300087F030008810300080000000042
:100020000000000000000000000000008303000842
:10003000850300080000000087030008890300080A
:10004000711E0008711E0008711E0008711E000854
:10005000711E0008711E0008711E0008711E000844
:10006000711E0008711E0008711E0008711E000834
:10007000711E000891030008711E0008711E00081F
:10008000711E0008711E0008711E0008711E000814
:10009000711E0008711E0008711E0008711E000804
:1000A000711E0008711E0008711E0008711E0008F4
:1000B000711E0008711E0008711E0008711E0008E4
:1000C000711E0008711E0008711E0008711E0008D4
:1000D000711E0008711E0008711E0008711E0008C4
:1000E000711E0008711E0008711E0008000000004B
:1000F0000000000000000000000000000000000000
:0C01000000000000000000005FF808F1A3
:10010C0010B5054C237833B9044B13B10448AFF345
:10011C0000800123237010BD180000200000000097
:10012C00CC1E000808B5034B1BB103490348AFF3C1
:10013C00008008BD000000001C000020CC1E000840
:10014C0030B587B000240294039404940594144BA6
:10015C009A6942F004029A619A6902F004020092D0
:10016C00009A9A6942F008029A619B6903F00803AD
:10017C000193019B0B4D22464FF4E071284601F090
:10018C00A3FC4FF4E0730293012303930494022322
:10019C00059302A9284601F089FB07B030BD00BFCA
:1001AC0000100240000C014000B583B00A4B5A69A4
:1001BC0042F001025A615B6903F001030193019B58
:1001CC00002211460D2001F0F5FD0D2001F002FE7C
:1001DC0003B05DF804FB00BF0010024072B6FEE7EE
:1001EC0008B50E480E4B03604FF482734360002336
:1001FC008360C3600222026143614FF4007282612A
:10020C000822C2610362436283620A23C36200F064
:10021C00F1FD00B908BDFFF7E1FF00BF7800002039
:10022C000030014000B591B02822002106A801F051
:10023C001AFE002301930293039304930593022364
:10024C00069301220A9210220B920D934FF4601325
:10025C000F9306A801F042F880B90F2301930221F5
:10026C000291002303934FF480620492059301A83A
:10027C0001F066FA20B911B05DF804FBFFF7AEFF90
:10028C00FFF7ACFF80B584B000F0DAFFFFF7CAFFD0
:10029C00FFF756FFFFF788FFFFF7A2FF00F00CFAFD
:1002AC002F4DDFF8C080002402944FF6FF760196A4
:1002BC006B6800932B68424621460F2000F0B3FC7C
:1002CC00294F029401966B6800932B683A4621469D
:1002DC009B2000F0A8FC4FF478430093F023782285
:1002EC001A21204600F0F5FAC82000F0CDFF4FF49B
:1002FC00FC630093F02378221A21792000F0D0FBC4
:10030C004FF47A7000F0C0FF204600F0B5F902946B
:10031C0001966B6800932B6842462146642000F0DE
:10032C0082FC1F2364227821084600F002FB4FF464
:10033C007A7000F0A9FF204600F09EF90294019615
:10034C006B6800932B683A462146642000F06BFCE6
:10035C001F2364227821084600F0F0FBA0E700BFC1
:10036C0004000020EC1E0008F41E0008FEE7FEE767
:10037C00FEE7FEE7FEE770477047704708B500F0F0
:10038C0071FF08BD08B5024801F02CFC08BD00BF88
:10039C003400002082B00E4B9A6942F001029A613F
:1003AC009A6902F001020092009ADA6942F08052D6
:1003BC00DA61DB6903F080530193019B054A5368B2
:1003CC0023F0E06343F00073536002B0704700BF4A
:1003DC00001002400000014010B586B000230293CB
:1003EC000393049305930268214B9A4201D006B003
:1003FC0010BD044603F560439A6942F480529A6139
:10040C009A6902F480520092009A9A6942F00802AA
:10041C009A619B6903F008030193019B28230293C3
:10042C00022303930323059302A9124801F03EFA19
:10043C00114A536843F0E06343F0010353600F48E3
:10044C000F4B036010234360002383608022C26043
:10045C000361436183614FF40053C36101F050FBAE
:10046C0018B9064BA3645C62C1E7FFF7B7FEF8E767
:10047C0000300140000C014000000140340000201D
:10048C003000024070B582B002AC04E906001D4693
:10049C00BDF81860079C4FF0000E1BE001FB0EF13D
:1004AC0004EB410121F81260013292B29DF8001068
:1004BC0091420BD903FA02FC1CF4004FEED001FB65
:1004CC000EF104EB410121F81250EDE70EF1010E93
:1004DC001FFA8EFE9DF80120724508D9A0F1200369
:1004EC0002FB03E3019A32F813300022DEE702B07C
:1004FC0070BD000070B506460D4600BF012280217C
:10050C00124801F0E1FA0CE03146114800F0B0FD60
:10051C000F4B9B6C93F82130012BF9D1A4B22644DC
:10052C002D1B85B14FF6FF74AC4228BF2C46A2B2EE
:10053C00084B1B88AB42E7D94FF0FF3331460448D8
:10054C0000F0B3FCEAE700BF70BD00BF000C014037
:10055C00780000200000002000B583B08DF8070063
:10056C0000BF00228021074801F0AEFA4FF0FF33A4
:10057C0001220DF10701044800F097FC00BF03B005
:10058C005DF804FB000C014078000020F0B583B04E
:10059C0007460D4616461C4600BF2A20FFF7DCFF17
:1005AC003B0A8DF804308DF80570330A8DF806304F
:1005BC008DF8076001AE04213046FFF79BFF2B201E
:1005CC00FFF7CAFF2B0A8DF804308DF80550230A6B
:1005DC008DF806308DF8074004213046FFF78AFF6E
:1005EC002C20FFF7B9FF00BF03B0F0BD00B583B0FE
:1005FC008DF8070000BF01228021074801F064FA42
:10060C004FF0FF3301220DF10701044800F04DFCBF
:10061C0000BF03B05DF804FB000C01407800002023
:10062C000B0243EA11239BB202E020F8023B013A91
:10063C00002AFAD1704708B54900FFF75BFF08BDE7
:10064C0010B504463620FFF787FF032C06D8DFE8E9
:10065C0004F002060A0EC020FFF7C8FF10BDA02050
:10066C00FFF7C4FFFAE70020FFF7C0FFF6E76020B2
:10067C00FFF7BCFFF2E7000070B50646EF231A4601
:10068C0000210846FFF782FF00BF00240DE0094D52
:10069C004FF4966231462846FFF7C2FF4FF496613D
:1006AC002846FFF7C8FF0134A4B22F2CEFD900BFA6
:1006BC0070BD00BFD000002010B584B04FF416629E
:1006CC000021464801F0CFFB0A2000F0DDFD444C30
:1006DC0000224021204601F0F7F90A2000F0D4FD59
:1006EC0001224021204601F0EFF9142000F0CCFD4E
:1006FC003A20FFF731FF5520FFF778FFB220FFF7C4
:10070C002BFF384B93E8030000908DF80410052163
:10071C006846FFF7EFFE0220FFF792FFB720FFF7C6
:10072C001BFF3520FFF762FFBB20FFF715FF1920D9
:10073C00FFF75CFFC020FFF70FFF2C20FFF756FFE1
:10074C00C220FFF709FF0120FFF750FFC320FFF77E
:10075C0003FF1220FFF74AFFC420FFF7FDFE202005
:10076C00FFF744FFC620FFF7F7FE0F20FFF73EFF11
:10077C00D020FFF7F1FEA420FFF738FFA120FFF7F0
:10078C0035FFE020FFF7E8FE174BEC460FCBACE84B
:10079C000700ACF800300E216846FFF7ABFEE120F5
:1007AC00FFF7DAFE114BEC460FCBACE80700ACF8C8
:1007BC0000300E216846FFF79DFE2120FFF7CCFE8E
:1007CC001120FFF7C9FE1320FFF7C6FE2920FFF703
:1007DC00C3FE0020FFF750FF04B010BDD000002076
:1007EC00000C0140E41E0008F81E0008081F000859
:1007FC00EF2816D810B582B01446EF2901D902B0F3
:10080C0010BD0B460246FFF7C1FE230A8DF80430DB
:10081C008DF8054000BF022101A8FFF76BFE00BF59
:10082C00EDE770472DE9F04F83B08B4615461E4619
:10083C00BDF830805A1A82EAE279A9EBE279291ADA
:10084C0081EAE17AAAEBE17AD14504DC2E461D4619
:10085C005B4683461846B34505D82B4605461846D5
:10086C0033465E469B46ABEB0604A3B2009323B221
:10087C00471B002FB8BF7F42C4F3C0341C44641024
:10088C00854220D34FF0FF3301930BE042462946BB
:10089C003046FFF7ADFFE41BA3B224B2002C0BDBF8
:1008AC000136B6B25E4511D8D145EFDD4246314630
:1008BC002846FFF79DFFEEE7019A1544ADB2009A6A
:1008CC0013441CB2ECE701230193EBE703B0BDE842
:1008DC00F08F2DE9F04383B0BDF8289000BFEF28CE
:1008EC0024D805460F4690461E46EF291ED883187D
:1008FC00EF2B03DDC0F1F0081FFA88F8BB19EF2BC2
:10090C0002DDC7F1F006B6B200240CE0E11989B2A1
:10091C0008EB0502CDF800900B4692B22846FFF783
:10092C0081FF0134E4B2B442F0D900BF03B0BDE89A
:10093C00F0832DE9F04F87B002929B4600BF95B231
:10094C00C5F1010424B2C5EBC5335B001BB20593A2
:10095C001FFA80F88FB2E9195A4689B24046FFF760
:10096C0047FF791B5A4689B24046FFF741FF05EB1A
:10097C000806B6B25A4639463046FFF739FFA8EB9F
:10098C000505ADB25A4639462846FFF731FFCDF87A
:10099C0000B03B46324639462846FFF743FF00235A
:1009AC0003930123049340E0039B01339DB21BB2DC
:1009BC000393049A023293B212B2049223441CB2EF
:1009CC00A8EB050A1FFA8AFABDF80860B91989B2B2
:1009DC0008EB05091FFA89F9CDF800B00B464A4619
:1009EC005046FFF71FFFB91B89B2CDF800B00B467C
:1009FC0052464846FFF716FF08EB06091FFA89F91D
:100A0C00791989B2A8EB0606B6B2CDF800B00B4640
:100A1C0032464846FFF706FF791B89B2CDF800B085
:100A2C000B4632464846FFF7FDFE039B029A934263
:100A3C000DDA002CB8DB029B013B1BB20293059A2A
:100A4C00023293B212B2059223441CB2ACE700BF3F
:100A5C0007B0BDE8F08F0000EF281DD838B51C4654
:100A6C00EF2918D88318F02B02DDC0F1F00292B2F6
:100A7C00024492B2013A0B4692B2FFF787FD074D42
:100A8C004FF4966221462846FFF7CAFD4FF4966153
:100A9C002846FFF7D0FD38BD704700BFD0000020BE
:100AAC00F8B5BDF81870EF2838D816461C46EF2953
:100ABC0034D88318F02B02DDC0F1F006B6B20B1956
:100ACC00F02B02DDC1F1F004A4B2321892B263181B
:100ADC009BB2013B013A9BB292B2FFF757FD00BFAC
:100AEC0004FB06F600240CE0124D4FF496623946D6
:100AFC002846FFF795FD4FF496612846FFF79BFDBE
:100B0C0001340D49A1FB0631B4EBD11FECD3CC0958
:100B1C004FF4966303FB14640CB900BFF8BD054D8C
:100B2C00224639462846FFF77BFD21462846FFF72B
:100B3C0082FDF2E7D0000020B5814E1B2DE9F04F6D
:100B4C0085B000929B4600BF94B2C4F101052DB252
:100B5C00C4EBC4367600B2B236B2039680B20190C2
:100B6C001FFA81FAC2F10102001B92B2514680B207
:100B7C00FFF772FF4FF00008012302933EE008F1EB
:100B8C0001081FFA88F70FFA88F8029A023293B21A
:100B9C0012B202922B441DB2019BA3EB07091FFA60
:100BAC0089F9BDF800407E00B6B20136B6B20AEB48
:100BBC0004015B46324689B24846FFF74DFFAAEB6B
:100BCC0004015B46324689B24846FFF745FF019B5C
:100BDC001E1BB6B26400A4B20134A4B20AEB070126
:100BEC005B46224689B23046FFF736FFAAEB070177
:100BFC005B46224689B23046FFF72EFF009B984594
:100C0C000DDA002DBBDB009B013B1BB20093039A5A
:100C1C00023293B212B203922B441DB2AFE700BF63
:100C2C0005B0BDE8F08F82B02DE9F04F85B002AF72
:100C3C0005460C4690467B63BB8F7B60B7F8403013
:100C4C003B6097F8352097F8343002FB03F35B00D8
:100C5C000733DB086A46A2EBC3039D460DF1080B74
:100C6C0000BF25E008F10108002521E0AA46CDF8D7
:100C7C0004B03B6800937B6807F1340206CAFFF7A7
:100C8C0001FC06EB0A05ADB297F8359009EB0403AD
:100C9C009BB2013B6A1E9BB292B221465046FFF7B3
:100CAC0075FC09FB06F15846FFF7C5FC08F1010875
:100CBC0098F8000080B197F83460AB19EF2BD5DDB4
:100CCC0097F835301C44A4B22344EF2B04DC2028C5
:100CDC00C8D04FF0000ACAE700BF0C37BD46BDE8CC
:100CEC00F04F02B0704700002DE9F04782B0054686
:100CFC00884617461E4600F0C1FA0A9B1B1A03EBE6
:100D0C00060900F0BBFA8246284B1B68C3F3CB33B1
:100D1C0009FB03F301932B689C6838EA04040CBFAD
:100D2C0001230023BB423DD0B6F1FF3FF3D000F0CE
:100D3C00A5FAA0EB0A00484507D2019A02B14A462F
:100D4C00019B013B01939146E5E72A68536823F028
:100D5C00E00353606B68B3F5827F0BD0AB6AB3F5DD
:100D6C00005F14D0012385F85130002385F85030F2
:100D7C00032018E0AB68B3F5004F02D0B3F5806FD9
:100D8C00ECD12A68136823F040031360E6E72A6865
:100D9C00136823F4005313602A68136843F4005358
:100DAC001360DFE7002002B0BDE8F08714000020DC
:100DBC0070B582B006460C46154600920B460122D1
:100DCC000221FFF791FF48B90095234600228021AC
:100DDC003046FFF789FF38B902B070BD736D43F030
:100DEC00200373650320F7E7736D43F020037365ED
:100DFC000320F1E7002856D010B50446436A33B9F6
:100E0C004368B3F5827F05D00023C36102E0002361
:100E1C00036143610023A36294F85130002B3CD052
:100E2C00022384F851302268136823F040031360C6
:100E3C00636803F48273A26802F404421343E26809
:100E4C0002F400621343226902F002021343626946
:100E5C0002F001021343A26902F400721343E26927
:100E6C0002F038021343226A02F080021343A26A92
:100E7C0002F40052216813430B60638B226803F069
:100E8C00040353602268D36923F40063D361002008
:100E9C006065012384F8513010BD84F85030204631
:100EAC00FFF79AFABCE7012070472DE9F04383B0B5
:100EBC000446894690461D4600F0E0F994F85160CE
:100ECC00F6B2012E40F0CC800746B9F1000F00F0CD
:100EDC00C880B8F1000F00F0C48094F85030012B9A
:100EEC0000F0C380012384F85030032384F8513080
:100EFC0000236365C4F83090A4F83480A4F83680DD
:100F0C00A363A387E38763642364A368B3F5004FEB
:100F1C001ED023681A6812F0400F03D11A6842F0F1
:100F2C0040021A60E368B3F5006F1CD0636813B11C
:100F3C00B8F1010F5FD1226B236812781A73236BFF
:100F4C0001332363E38E9BB2013B9BB2E38652E0F9
:100F5C002268136823F0400313602268136843F47B
:100F6C0080431360D5E7636813B1B8F1010F15D155
:100F7C00226B23681288DA60236B02332363E38EBF
:100F8C009BB2013B9BB2E38608E000F077F9C01BF3
:100F9C00A84202D3B5F1FF3F15D1A5B1E38E9BB2A8
:100FAC00002B42D023689A6812F0020FEDD0226B0E
:100FBC001288DA60236B02332363E38E9BB2013B0E
:100FCC009BB2E386EAE7012384F85130002384F8CE
:100FDC005030032645E0226B12781A73236B0133D1
:100FEC002363B4F836C01FFA8CFC0CF1FF3C1FFADB
:100FFC008CFCA4F836C0E38E9BB2B3B123689A681C
:10100C0012F0020FE7D100F039F9C01BA84202D34D
:10101C00B5F1FF3F01D1002DEDD1012384F8513002
:10102C00002384F8503003261BE03A46294620461C
:10103C00FFF7BEFE08B120236365A36833B90193A3
:10104C002368DA6801929B680193019B012384F861
:10105C005130002384F85030636D13B9002600E042
:10106C000226304603B0BDE8F0830226F9E7000003
:10107C0038B590F85150EDB2012D5DD104460029E0
:10108C005BD0002A59D090F85030012B57D0012357
:10109C0080F85030032380F85130002343650163FE
:1010AC008286C2868363436403648387C3878368B1
:1010BC00B3F5004F2DD0A36C224ADA62A36C224AFE
:1010CC009A62A36C214A1A63A36C00225A632268A9
:1010DC00E38E9BB20C32216BA06C00F047FD0146F5
:1010EC0010BB23681A6812F0400F03D11A6842F043
:1010FC0040021A60002384F850302268536843F091
:10110C00200353602268536843F0020353600D467A
:10111C0013E00268136823F040031360026813683D
:10112C0043F480431360C6E7636D43F010036365BB
:10113C00002384F8503000E00225284638BD0225F3
:10114C00FBE700BF611100088F1100086D1100084A
:10115C007047704708B5406AFFF7FBFF08BD704742
:10116C0008B5406A0268536823F003035360436D6B
:10117C0043F010034365012380F85130FFF7EFFF74
:10118C0008BD30B583B00546446A00F077F82B688B
:10119C001B6813F0200F23D1024621684B6823F003
:1011AC0020034B6021684B6823F002034B606421E1
:1011BC002046FFF7FDFD18B1636D43F02003636516
:1011CC00A36833B901932368DA6801929B68019391
:1011DC00019B0023E386012384F85130636D23B90E
:1011EC002046FFF7B5FF03B030BD2046FFF7B7FF31
:1011FC00F9E7000010B504460E4B1A784FF47A73D9
:10120C00B3FBF2F30C4A1068B0FBF3F000F0F0FD06
:10121C0068B90F2C01D901200AE0002221464FF0B9
:10122C00FF3000F0C7FD054B1C60002000E00120E2
:10123C0010BD00BF0C000020140000201000002086
:10124C0008B5074A136843F010031360032000F03D
:10125C009FFD0F20FFF7CEFFFFF79CF8002008BD85
:10126C0000200240034A1168034B1B780B441360A7
:10127C00704700BF300A00200C000020014B18689A
:10128C00704700BF300A002038B50446FFF7F6FF60
:10129C000546B4F1FF3F02D0044B1B781C44FFF70A
:1012AC00EDFF401BA042FAD338BD00BF0C0000205C
:1012BC0082B0084B1B68084AA2FB03235B0A00FBA5
:1012CC0003F3019300BF019B5A1E0192002BF9D12D
:1012DC0002B0704714000020D34D6210002800F0BB
:1012EC00F18170B582B00446036813F0010F2CD065
:1012FC00994B5B6803F00C03042B1DD0964B5B6879
:10130C0003F00C03082B12D06368B3F5803F41D077
:10131C00002B55D103F1804303F504331A6822F4F2
:10132C0080321A601A6822F480221A6037E08A4BE5
:10133C005B6813F4803FE7D0874B1B6813F4003FC6
:10134C0003D06368002B00F0BF81236813F0020FF9
:10135C0075D0814B5B6813F00C0F5FD07E4B5B68D4
:10136C0003F00C03082B54D02369002B00F08A8067
:10137C007A4B01221A60FFF781FF0546764B1B68FA
:10138C0013F0020F75D1FFF779FF401B0228F5D936
:10139C0003209EE1704A136843F480331360636842
:1013AC0043B3FFF76BFF05466B4B1B6813F4003F11
:1013BC00CBD1FFF763FF401B6428F5D9032088E1EC
:1013CC00B3F5A02F09D0644B1A6822F480321A604E
:1013DC001A6822F480221A60E1E703F18043A3F536
:1013EC003C331A6842F480221A601A6842F4803244
:1013FC001A60D4E7FFF742FF0546574B1B6813F4FE
:10140C00003FA2D0FFF73AFF401B6428F5D9032018
:10141C005FE1514B5B6813F4803FA5D14E4B1B68C9
:10142C0013F0020F03D02369012B40F04F814A4A7D
:10143C00136823F0F803616943EAC103136023685E
:10144C0013F0080F33D0A369002B5CD0434B01225F
:10145C00C3F88024FFF712FF05463F4B5B6A13F07D
:10146C00020F21D1FFF70AFF401B0228F5D90320F8
:10147C002FE1394A136823F0F803616943EAC10389
:10148C001360DCE7354B00221A60FFF7F7FE0546C8
:10149C00314B1B6813F0020FD1D0FFF7EFFE401B4E
:1014AC000228F5D9032014E10120FFF701FF23687E
:1014BC0013F0040F00F09680274BDB6913F0805F6C
:1014CC0034D1254BDA6942F08052DA61DB6903F0E2
:1014DC0080530193019B0125214B1B6813F4807FE2
:1014EC0026D0E368012B3DD0002B53D103F1804370
:1014FC0003F504331A6A22F001021A621A6A22F006
:10150C0004021A6233E0154B0022C3F88024FFF763
:10151C00B5FE0546104B5B6A13F0020FC7D0FFF700
:10152C00ADFE401B0228F5D90320D2E00025D3E7FD
:10153C000B4A136843F480731360FFF79FFE064653
:10154C00074B1B6813F4807FCBD1FFF797FE801BF2
:10155C006428F5D90320BCE0001002400000424290
:10156C00007000405F4A136A43F001031362E368A2
:10157C0033B3FFF783FE06465A4B1B6A13F0020F78
:10158C002FD1FFF77BFE801B41F288339842F3D9B1
:10159C0003209EE0052B09D0524B1A6A22F001025F
:1015AC001A621A6A22F004021A62E0E74D4B1A6AB8
:1015BC0042F004021A621A6A42F001021A62D6E779
:1015CC00FFF75CFE0646474B1B6A13F0020F08D070
:1015DC00FFF754FE801B41F288339842F3D9032065
:1015EC0077E0E5B9E369002B72D03E4A526802F00D
:1015FC000C02082A56D0022B17D03B4B00221A663D
:10160C00FFF73CFE0446374B1B6813F0007F47D0B6
:10161C00FFF734FE001B0228F5D9032059E0314AAC
:10162C00D36923F08053D361DCE72F4B00221A6679
:10163C00FFF724FE05462B4B1B6813F0007F06D0EA
:10164C00FFF71CFE401B0228F5D9032041E0236A5A
:10165C00B3F5803F1AD023494B6823F47413226AE4
:10166C00606A024313434B601F4B01221A66FFF75B
:10167C0005FE04461B4B1B6813F0007F0ED1FFF7D1
:10168C00FDFD001B0228F5D9032022E0154A536802
:10169C0023F40033A1680B435360DCE7002018E00F
:1016AC00002016E0012B16D00E4B5B6803F4803142
:1016BC00226A914211D103F47013626A93420ED1E3
:1016CC00002006E001207047012002E0012000E02C
:1016DC00002002B070BD0120FBE70120F9E70120DA
:1016EC00F7E700BF00100240000042420F4B5B685E
:1016FC0003F00C02082A01D00D487047C3F3834253
:10170C000C49885C13F4803F0BD0084B5B68C3F327
:10171C004043094AD35C064A02FB00F0B0FBF3F0ED
:10172C007047064B03FB00F0704700BF00100240EF
:10173C0000127A00683200086432000800093D008B
:10174C00002800F0A08070B50D460446524B1B6873
:10175C0003F007038B420BD24F4A136823F00703A5
:10176C000B431360136803F007038B4240F08D802A
:10177C00236813F0020F17D013F0040F04D0474A5C
:10178C00536843F4E0635360236813F0080F04D0EC
:10179C00424A536843F460535360404A536823F001
:1017AC00F003A1680B435360236813F0010F31D091
:1017BC006368012B20D0022B25D0384A126812F016
:1017CC00020F64D035494A6822F0030213434B6080
:1017DC00FFF754FD0646314B5B6803F00C0362685F
:1017EC00B3EB820F16D0FFF749FD801B41F2883313
:1017FC009842F0D9032045E0284A126812F4003FC1
:10180C00E0D101203EE0254A126812F0007FD9D1C8
:10181C00012037E0204B1B6803F00703AB420AD9C9
:10182C001D4A136823F007032B431360136803F05E
:10183C000703AB422DD1236813F0040F06D0174ACF
:10184C00536823F4E063E1680B435360236813F09F
:10185C00080F07D0114A536823F46053216943EAF7
:10186C00C1035360FFF742FF0C4B5B68C3F30313D8
:10187C000B4AD35CD8400B4B18600B4B1868FFF726
:10188C00B9FC002070BD012070470120FAE701204F
:10189C00F8E70120F6E700BF0020024000100240EC
:1018AC0078320008140000201000002070B582B0BF
:1018BC000024A446A2E07E4DAB4210D007D97D4D4A
:1018CC00AB420CD005F58035AB4208D013E0A5F542
:1018DC008015AB4203D005F57025AB4207D18B6860
:1018EC00002B55D0012B4ED04261082403E0A5F506
:1018FC008015AB42F3D0BEF1FF0F4BD806464FEA32
:10190C008C0233680F25954023EA050304FA02F292
:10191C00134333604B6813F0805F6DD0664B9A694C
:10192C0042F001029A619B6903F001030193019B50
:10193C004FEA9C02951C614B53F825600CF0030593
:10194C00AD000F23AB4026EA03065D4B984228D02E
:10195C0003F58063984200F08D8003F58063984214
:10196C0000F08A8003F58063984218D0042319E0B4
:10197C00CC68C0E7CC680434BDE7CC680834BAE75F
:10198C00CC680C34B7E702610824B4E70024B2E752
:10199C000424B0E7061DACF108029200B1E7032362
:1019AC0000E00023AB4033430232444D45F8223073
:1019BC004B6813F4801F61D0424A936843EA0E03CC
:1019CC0093604B6813F4001F5ED03E4AD36843EA21
:1019DC000E03D3604B6813F4003F5BD0394A536855
:1019EC0043EA0E0353604B6813F4803F58D0354ADA
:1019FC00136843EA0E0313600CF1010C0B6833FA05
:101A0C000CF253D0012202FA0CF203EA020E32EA73
:101A1C000303F1D14B68122B3FF64DAF122B3FF65F
:101A2C006AAF01A555F823F0EB1800087D190008E2
:101A3C0087190008991900080319000803190008F0
:101A4C0003190008031900080319000803190008FA
:101A5C0003190008031900080319000803190008EA
:101A6C00031900080319000803190008811900085C
:101A7C008D190008012395E7022393E7114A936817
:101A8C0023EA0E0393609CE70E4AD36823EA0E0305
:101A9C00D3609FE70B4A536823EA0E035360A2E717
:101AAC00084A136823EA0E031360A5E702B070BD61
:101ABC000000221000003110001002400000014014
:101ACC0000080140000401400AB10161704709049B
:101ADC000161704730B40124056CAC40C56B6C607F
:101AEC00046863604368102B05D003689960036831
:101AFC00DA6030BC704703689A600368D960F8E715
:101B0C0060B310B402460168154B0B441548A0FB9A
:101B1C0003031B099B001364134BD363022382F84A
:101B2C002130086820F47F5020F03000536894680E
:101B3C002343D4682343146923435469234394698E
:101B4C002343D469234303430B6000209063012398
:101B5C0082F8213082F8200010BC704701207047B9
:101B6C00F8FFFDBFCDCCCCCC0000024038B504460C
:101B7C0090F82000012832D0012084F8200094F83D
:101B8C002100C0B2012804D0002384F820300220A8
:101B9C0038BD022084F821000020A0632568286845
:101BAC0020F0010028602046FFF794FFE36A5BB148
:101BBC002268136843F00E0313602268136843F025
:101BCC00010313600020E3E72268136823F0040389
:101BDC0013602268136843F00A031360EDE70220D8
:101BEC00D6E7000038B5C36B1A6804682568016C29
:101BFC0004238B40134235D015F0040F32D02368E8
:101C0C0013F0200F03D1236823F00403236003682F
:101C1C00434A934214D01432934218D01432934254
:101C2C0017D01432934217D01432934217D0143277
:101C3C00934202D04FF0806203E04FF4800200E048
:101C4C000422384B5A60C36A03B1984738BD40220E
:101C5C00F7E74FF48062F4E74FF48042F1E74FF47A
:101C6C008022EEE702238B4013423CD015F0020F8A
:101C7C0039D0236813F0200F06D1236823F00A0310
:101C8C002360012380F821300368254A934214D045
:101C9C00143293421CD0143293421BD01432934210
:101CAC001BD0143293421BD01432934202D04FF00B
:101CBC00007203E04FF4001200E00222194B5A604C
:101CCC00002380F82030836A002BBFD09847BDE7F3
:101CDC002022F3E74FF40072F0E74FF40052EDE7E7
:101CEC004FF40032EAE708238B401342AED015F0D4
:101CFC00080FABD0236823F00E032360026CC16B7A
:101D0C00012303FA02F24A60836380F82130002336
:101D1C0080F82030036B002B98D0984796E700BFD3
:101D2C000800024000000240002808DB0901C9B28B
:101D3C0000F1604000F5614080F80013704700F03E
:101D4C000F000901C9B2014B1954704714ED00E0A2
:101D5C0000B500F00700C0F1070CBCF1040F28BF60
:101D6C004FF0040C031D062B0FD9C31E4FF0FF3E82
:101D7C000EFA0CF021EA000199400EFA03FE22EA59
:101D8C000E0241EA02005DF804FB0023EEE70000BE
:101D9C00074AD36823F4E0631B041B0C000200F415
:101DAC00E060034343F0BF6343F40033D3607047F8
:101DBC0000ED00E010B50446054BD868C0F30220D6
:101DCC00FFF7C6FF01462046FFF7AEFF10BD00BF70
:101DDC0000ED00E0002807DB00F01F0240090123A2
:101DEC009340024A42F82030704700BF00E100E007
:101DFC000138B0F1807F0BD24FF0E0235861054AD7
:101E0C00F02182F823100020986107221A61704794
:101E1C000120704700ED00E070470000FFF7FCFF69
:101E2C000B480C490C4A002302E0D458C45004332C
:101E3C00C4188C42F9D3094A094C002301E0136001
:101E4C000432A242FBD300F017F8FEF71BFA7047DE
:101E5C00000000201800002090320008180000201C
:101E6C00340A0020FEE703460244934200D1704737
:101E7C0003F8011BF9E7000070B500260C4D0D4C62
:101E8C00641BA410A64209D100F01AF800260A4DD2
:101E9C000A4C641BA410A64205D170BD55F8043B36
:101EAC0098470136EEE755F8043B98470136F2E7C0
:101EBC008832000888320008883200088C3200080A
:101ECC00F8B500BFF8BC08BC9E467047F8B500BF1B
:081EDC00F8BC08BC9E467047EB
:101EE4000C0C0033330000004E4F20444D410000E1
:101EF400444D4100D0040D11132B3F544C180D0BCD
:101F04001F230000D0040C11132C3F44512F1F1F1A
:101F1400202300000000000000000000000000007A
:101F240000000000000000000000000000000000AD
:101F3400000000000000000000000000000000009D
:101F44000000000000000000E003E003E003E00301
:101F5400E003E003E003E003C003C003C001C001E9
:101F6400C001C001C001000000000000E003E00364
:101F7400E003000000000000000000003C1E3C1EC6
:101F84003C1E3C1E3C1E3C1E3C1E0000000000008B
:101F9400000000000000000000000000000000003D
:101FA400000000000000000000000000000000002D
:101FB400CE01CE03DE039E039C039C07FF3FFF7FFD
:101FC4003807380F780F780F780EFFFFFFFFF01EE9
:101FD400F01CE01CE03CE03DE039000000000000A3
:101FE40000000000FC03FE0FEE1FE01EE01EE01EDA
:101FF400E01EE01FE00FE007F003FC01FE01FE011C
:10200400FE01FE01FE01FE01FE3DFC3FF00FE0017A
:10201400E001000000000000033E07F78FE78EE7B1
:102024009EE3BCE3B8E7F8E7F0F7E03FC001FF0345
:10203400FF07F307F30FF31EF33CF338F3787FF055
:102044003FE000000000000000000000E007F80F7F
:10205400780F781F781F781F780FF00FE00F801F1C
:10206400C37FC3FBE7F3F7F1F7F0FFF07FF03EF82F
:102074007F7CFF3FEF1F0000000000000000000015
:10208400E003E003E003E003E003C003C001000059
:10209400000000000000000000000000000000003C
:1020A400000000000000000000000000000000002C
:1020B400000000003F007C00F001E001C003C00705
:1020C40080078007800F000F000F000F000F000F24
:1020D400000F800F80078007C007C003E001F001F4
:1020E4007C003F000F000000007E001FC007C003FB
:1020F400E001F001F000F000F800780078007800CA
:10210400780078007800F800F000F000F001E001B9
:10211400C003C007001F007E00780000E003C00376
:10212400C001CE39FF3F7F3F20037003F807780FCB
:102134003C1F380600000000000000000000000002
:10214400000000000000000000000000000000008B
:10215400000000000000000000000000C001C001F9
:10216400C001C001C001C001C001FFFFFFFFC001E9
:10217400C001C001C001C001C00100000000000096
:10218400000000000000000000000000000000004B
:10219400000000000000000000000000000000003B
:1021A400000000000000E003E003E003E003E001BE
:1021B400E001E001C0018003000000000000000015
:1021C4000000000000000000000000000000FE3FCE
:1021D400FE3F0000000000000000000000000000BE
:1021E40000000000000000000000000000000000EB
:1021F40000000000000000000000000000000000DB
:102204000000000000000000000000000000E003E7
:10221400E003E003E0030000000000000000000011
:102224000F000F001E001E003C003C0078007800E8
:10223400F000F000E001E001C003C0038007800764
:10224400000F000F001E001E003C003C00780078C8
:1022540000F00000F007F80F7C1F3E3E1E3C1F7C80
:102264001F7C0F780F780F780F780F780F780F781E
:102274001F7C1F7C1E3C3E3E7C1FF80FF0070000B5
:102284000000000000000000F000F007F03FF03F05
:10229400F001F001F001F001F001F001F001F001B2
:1022A400F001F001F001F001F001F001F001FF3F55
:1022B400FF3F00000000000000000000E00FF83FB6
:1022C4007C3C3C003E003E003E003C003C007C0068
:1022D400F800F001E003C0078007000F001E003E75
:1022E400003CFE3FFE3F0000000000000000000034
:1022F400F00FF81F7C1C3E003E003E003C003C00FA
:10230400F800F00FF80F7C003E001E001E001E00B7
:102314001E003E007C1CF81FE01F000000000000AF
:10232400000000007800F800F800F801F803F8074E
:10233400F807780F781E781E783C78787878FFFF55
:10234400FFFF7800780078007800780078000000BB
:102354000000000000000000FC1FFC1FFC1F001E0A
:10236400001E001E001E001EE01FF81FFC007C0063
:102374003E003E001E003E003E003C007C1CF81F58
:10238400E01F00000000000000000000FC01FE0748
:102394008E0F001F001E003E003C003CF83DFC3F39
:1023A4003E7F1F7E0F3C0F3C0F3C0F3C0F3E1F1E19
:1023B4003E1FFC0FF00300000000000000000000BE
:1023C400FF3FFF3FFF3F0F001E001E003C00380090
:1023D4007800F000F000E001E001C003C0038007D2
:1023E400800F800F000F001F001F0000000000007E
:1023F40000000000F807FC0F3E1F1E1E1E3E1E3E7E
:102404001E1E3C1FF80FF007F80FFC1E3E3E1F3C3B
:102414001F7C0F7C0F7C1F3C3E3FFC1FF00700001D
:102424000000000000000000F007F80F7C1E3E3C96
:102434001E3C1F7C1F7C1F7C1F7C1F3C3F3EFF1FDC
:10244400EF071F001E001E003E003C00F838F03F5E
:10245400E01F000000000000000000000000000079
:102464000000000000000000E003E003E003E003DC
:102474000000000000000000000000000000E00375
:10248400E003E003E003000000000000000000009F
:10249400000000000000000000000000E003E00372
:1024A400E003E00300000000000000000000000062
:1024B4000000E003E003E003E003E001E001E001E9
:1024C400C0038003000000000000000000000000C2
:1024D40003000F003F00FC00F003C00F003F00FEAC
:1024E400003FC00FF003FC003F000F00030000009A
:1024F40000000000000000000000000000000000D8
:10250400000000000000000000000000FFFFFFFFCB
:10251400000000000000FFFFFFFF000000000000BB
:1025240000000000000000000000000000000000A7
:10253400000000000000000000E000F8007E801FA2
:10254400E007F8017E001F007E00F801E007801F0D
:10255400007E00F800E00000000000000000000021
:10256400F01FFC3F3E381F381F381E001E003C0081
:102574007800F000E001C003C003C007C0070000FA
:1025840000000000C007C007C007000000000000F2
:1025940000000000F803FE0F1E1F0F3E7F3CFF7873
:1025A400EF79C773C7F38FF38FF38FF39FF39FF321
:1025B400FF73FF7BF779003C1C1FFC0FF80300003E
:1025C4000000000000000000000000000000E00324
:1025D400E003F007F007F007780F780F7C0E3C1E3D
:1025E4003C1E3E3CFE3FFF3F1F780F780FF007F084
:1025F40007F00000000000000000000000000000E0
:102604000000F83FFC3F3E3C1E3C1E3C1E3C3E3C52
:102614007C3CF03FF83F7E3C1F3C1F3C0F3C0F3C92
:102624001F3CFE3FF83F00000000000000000000D7
:10263400000000000000FF01FF07871F003E003C70
:10264400007C00780078007800780078007C007CBA
:10265400003E003F831FFF07FF0100000000000051
:1026640000000000000000000000F07FFC7F7E7886
:102674001F781F780F780F780F780F780F780F78FE
:102684000F780F781F781E787E78F87FE07F00003F
:102694000000000000000000000000000000FF3FF8
:1026A400FF3F003E003E003E003E003E003EFE3F37
:1026B400FE3F003E003E003E003E003E003EFF3F27
:1026C400FF3F0000000000000000000000000000C8
:1026D4000000FF1FFF1F001E001E001E001E001E24
:1026E400001EFF1FFF1F001E001E001E001E001EF6
:1026F400001E001E001E000000000000000000007C
:10270400000000000000FE03FF0F871F003E007C56
:10271400007C007800F800F87FF87FF80F780F7CD1
:102724000F7C0F3E8F1FFF0FFE0300000000000010
:10273400000000000000000000001F7C1F7C1F7CC4
:102744001F7C1F7C1F7C1F7C1F7CFF7FFF7F1F7CE7
:102754001F7C1F7C1F7C1F7C1F7C1F7C1F7C000038
:102764000000000000000000000000000000FF3F27
:10277400FF3FE003E003E003E003E003E003E003E2
:10278400E003E003E003E003E003E003E003FF3FD2
:10279400FF3F0000000000000000000000000000F7
:1027A4000000FC1FFC1F7C007C007C007C007C0083
:1027B4007C007C007C007C007C007C00780078003D
:1027C400F838F03FC03F00000000000000000000A7
:1027D4000000000000001F3C1E3C3C3C783CF03CE8
:1027E400E03DE03FC03F803FC03FE03FF03DF03C74
:1027F400783C7C3C3E3C1F3C0F3C00000000000049
:1028040000000000000000000000003E003E003E0A
:10281400003E003E003E003E003E003E003E003EC4
:10282400003E003E003E003E003EFF3FFF3F0000F2
:1028340000000000000000000000000000001FF87D
:102844001FFC1FFC3FFE3FFE3FFE7FFF77FF77FF2D
:10285400F7F7E7F7E7F3E7F3C7F307F007F007F055
:1028640007F000000000000000000000000000006D
:1028740000000F7C0F7C0F7E0F7F0F7F8F7F8F7F79
:10288400CF7FEF7BEF79FF79FF78FF787F783F7810
:102894003F781F781F78000000000000000000004F
:1028A400000000000000F007FC1F3E3E1F7C0F7874
:1028B4000F780FF80FF80FF80FF80FF80FF80F78DC
:1028C4000F781F7C3E3EFC1FF00700000000000054
:1028D40000000000000000000000FC3FFF3F1F3E1E
:1028E4000F3E0F3E0F3E0F3E1F3E3F3EFC3FF03F6C
:1028F400003E003E003E003E003E003E003E000022
:102904000000000000000000000000000000F007CC
:10291400FC1F3E3E1F7C0F780F780FF80FF80FF85E
:102924000FF80FF80FF80F780F781F7C3E3EFC1F4E
:10293400F8077C003F000F000300000000000000C7
:102944000000F03FFC3F7E3C3E3C1E3C1E3C3E3CB7
:102954003C3CFC3CF03FE03FF03DF83C7C3C3E3CE2
:102964001E3C1F3C0F3C0000000000000000000063
:10297400000000000000FC07FE1F0E3E003C003C6F
:10298400003C003EC01FF80FFE037F001F000F0035
:102994000F001F203E3CFC3FF01F00000000000021
:1029A40000000000000000000000FFFFFFFFE00344
:1029B400E003E003E003E003E003E003E003E003FB
:1029C400E003E003E003E003E003E003E0030000CE
:1029D40000000000000000000000000000000F7C68
:1029E4000F7C0F7C0F7C0F7C0F7C0F7C0F7C0F7C8B
:1029F4000F7C0F7C0F7C0F7C1E3C1E3C3E3EFC1F5C
:102A0400F0070000000000000000000000000000CB
:102A1400000007F007F007F80F780F7C1E3C1E3CFF
:102A24001E3E3C1E3C1F781F780FF80FF007F0077E
:102A3400F007E003E00300000000000000000000D5
:102A440000000000000003E003F003F007F0E7F3E8
:102A5400E7F3E7F3E773F77BF77FFF7F7F7F7F7F02
:102A64007E7F7E3F3E3E3E3E3E3E00000000000034
:102A74000000000000000000000007F80F7C1E3E6C
:102A84003E3E3C1FF80FF007E007E003E003F007C9
:102A9400F80F7C0F7C1E3E3C1F780F780FF000006F
:102AA400000000000000000000000000000007F823
:102AB40007780F7C1E3C1E3E3C1F780FF80FF00772
:102AC400E003E003E003E003E003E003E003E003EA
:102AD400E00300000000000000000000000000000F
:102AE4000000FF7FFF7F0F001F003E007C00F80006
:102AF400F000E001E003C007800F000F001E003E5D
:102B0400007CFF7FFF7F0000000000000000000049
:102B1400FF078007800780078007800780078007FA
:102B24008007800780078007800780078007800769
:102B34008007800780078007800780078007FF07DA
:102B4400FF07000000780078003C003C001E001ED7
:102B5400000F000F80078007C003C003E001E001FD
:102B6400F000F000780078003C003C001E001E00DD
:102B74000F000F0007000000F07FF000F000F000ED
:102B8400F000F000F000F000F000F000F000F000C1
:102B9400F000F000F000F000F000F000F000F000B1
:102BA400F000F000F000F07FF07F0000C000C001F2
:102BB400C001E003E003F007F0077807780F380F4F
:102BC4003C1E3C1E1E3C1E3C0F380F78077800004C
:102BD40000000000000000000000000000000000F1
:102BE40000000000000000000000000000000000E1
:102BF40000000000000000000000000000000000D1
:102C040000000000000000000000FFFFFFFF0000C4
:102C140000000000F00000000000000000000000C0
:102C240000000000000000000000000000000000A0
:102C34000000000000000000000000000000000090
:102C44000000000000000000000000000000000080
:102C540000000000F80FFC3F7C3C3E003E003E00BC
:102C6400FE07FE1F3E3E3E7C3E783E7C7E7CFF3F60
:102C7400CF1F00000000000000000000003C003CEA
:102C8400003C003C003C003CF83DFE3F3E3F1F3E04
:102C94000F3C0F3C0F3C0F3C0F3C0F3C1F3C1E3CB9
:102CA4003E3FFC3FF03B000000000000000000003D
:102CB400000000000000000000000000FE03FF0F01
:102CC400871F003E003E003C007C007C007C003CF2
:102CD400003E003E871FFF0FFE03000000000000BF
:102CE400000000001F001F001F001F001F001F0026
:102CF400FF07FF1F3F3E1F3C1F7C1F7C1F7C1F786C
:102D04001F781F7C1F7C3F3C7F3EFF1FDF0F0000AE
:102D140000000000000000000000000000000000AF
:102D240000000000F803FC0F3E1F1E3E1F3C1F7CEA
:102D3400FF7FFF7F007C007C003C003E071FFF0FED
:102D4400FE0300000000000000000000FF01E1039A
:102D5400C003C007C007C007FF7FFF7FC007C007CD
:102D6400C007C007C007C007C007C007C007C00727
:102D7400C007C007C00700000000000000000000FA
:102D8400000000000000000000000000EF07FF1F2B
:102D94007F3E1F3C1F7C1F7C1F781F781F781F7C81
:102DA4001F7C3F3C7F3EFF1FDF0F1E001E001E00E6
:102DB4007C38F83F003C003C003C003C003C003CBC
:102DC400FC3DFE3F9E3F1F3F1F3E1F3C1F3C1F3CE0
:102DD4001F3C1F3C1F3C1F3C1F3C1F3C1F3C000072
:102DE4000000000000000000F001F00100000000FD
:102DF40000000000E07FE07FE001E001E001E0018D
:102E0400E001E001E001E001E001E001E001E001B6
:102E1400E00100000000000000000000F800F800DD
:102E24000000000000000000F83FF83FF800F80040
:102E3400F800F800F800F800F800F800F800F800CE
:102E4400F800F800F800F800F800F000F071E07FF6
:102E5400003C003C003C003C003C003C1F3C3E3C31
:102E64007C3CF83CF03DE03DC03FC03FE03FF03DDE
:102E7400F83C7C3C3E3C1F3C1F3C00000000000032
:102E840000000000F07FF001F001F001F001F0011A
:102E9400F001F001F001F001F001F001F001F001A6
:102EA400F001F001F001F001F001F001F001000087
:102EB400000000000000000000000000000000000E
:102EC400000000009EF7FFFFFFFFFFFFE7FBE7F9AD
:102ED400C7F1C7F1C7F1C7F1C7F1C7F1C7F1C7F12E
:102EE400C7F1000000000000000000000000000026
:102EF4000000000000000000FC3DFE3F9E3F1F3F1D
:102F04001F3E1F3C1F3C1F3C1F3C1F3C1F3C1F3CE3
:102F14001F3C1F3C1F3C000000000000000000009C
:102F2400000000000000000000000000F007FC1F8B
:102F34003E3E1F3C1F7C0F780F780F780F780F7878
:102F44001F7C1F3C3E3EFC1FF007000000000000F9
:102F5400000000000000000000000000000000006D
:102F6400F83DFE3F3E3F1F3E0F3C0F3C0F3C0F3CE5
:102F74000F3C0F3C1F3C1E3E3E3FFC3FF83F003CD5
:102F8400003C003C003C003C00000000000000004D
:102F940000000000EE07FE1F7E3E1E3C1E7C1E78D5
:102FA4001E781E781E781E781E7C3E7C7E3EFE1F98
:102FB400DE0F1E001E001E001E001E00000000008A
:102FC40000000000000000007F1FFF1FE71FC71F55
:102FD400871F001F001F001F001F001F001F001F6E
:102FE400001F001F001F0000000000000000000080
:102FF400000000000000000000000000FC07FE1FAD
:103004000E1E003E003E003FE01FFC07FE003E0097
:103014001E001E003E3CFC3FF01F000000000000AC
:103024000000000000000000000080078007800707
:10303400FF7FFF7F80078007800780078007800766
:103044008007800780078007C007FF03FF01000097
:10305400000000000000000000000000000000006C
:10306400000000001E3C1E3C1E3C1E3C1E3C1E3C40
:103074001E3C1E3C1E3C1E3C3E3C7E3CFE3EFE1F57
:10308400DE0F00000000000000000000000000004F
:10309400000000000000000007F00F780F781E3CCD
:1030A4001E3C1E3E3C1E3C1E780F780FF00FF007AE
:1030B400F007E003E003000000000000000000004F
:1030C40000000000000000000000000003F0E3F135
:1030D400E3F3E7F3F7F3F7F3F77F777F7F7F7F7F00
:1030E4007F7F3E3E3E3E3E3E3E3E000000000000EE
:1030F40000000000000000000000000000000000CC
:103104000F7C1E3E3C3E3C1FF80FF007F007E00327
:10311400F007F807F80F7C1E3E3E1F3C1F780000A6
:10312400000000000000000000000000000000009B
:103134000000000007F80F780F7C1E3C1E3C3C1E6C
:103144003C1E3C1F780FF80FF007F007E003E00384
:10315400C003C003C0038007800F007F000000008D
:103164000000000000000000FF3FFF3F1F003E0082
:103174007C00F800F001E003C007800F001F001E70
:10318400003CFF7FFF7F0000000000000000000003
:10319400FE01E003C003C003C003C003E001E0017B
:1031A400E001C001C003803F803FC003C001E001D3
:1031B400E001E001C003C003C003C003E003FE015B
:1031C4007E000000C001C001C001C001C001C001F7
:1031D400C001C001C001C001C001C001C001C001E3
:1031E400C001C001C001C001C001C001C001C001D3
:1031F400C001C001C0010000C03FE003E001E001E4
:10320400E001E001C001C003C003C001E001FE0011
:10321400FE00E001C001C003C003C001E001E00101
:10322400E001E001E003C03F003F000000000000B7
:10323400000000000000000000000000000000008A
:103244000000073FC77FE773FFF17EF00000000036
:10325400000000000000000000000000000000006A
:103264000102000002030405060708090A0B0C0DFD
:103274000E0F101000000000000000000102030403
:043284000607080928
:043288003101000808
:04328C000D01000828
:1032900040000000101A0000181F00080100000084
:0832A0001000000000127A008A
:0400000508001E29A8
:00000001FF
